:100000000C94B1000C94C6000C94C6000C94C6006D
:100010000C94C6000C94C6000C94C6000C94C60048
:100020000C94C6000C94C6000C94C6000C94C60038
:100030000C94C6000C94C6000C94C6000C94C60028
:100040000C94C6000C94C6000C94C6000C94C60018
:100050000C94C6000C94C6000C94C6000C94C60008
:100060000C94C6000C94C60000407A10F35A00A00D
:10007000724E18090010A5D4E80000E87648170071
:1000800000E40B54020000CA9A3B000000E1F505B1
:10009000000080969800000040420F000000A086FB
:1000A00001000000102700000000E803000000002D
:1000B0006400000000000A000000000001000000D1
:1000C00000002C76D888DC674F0823DFC1DFAE59EB
:1000D000E1B1B796E5E3E453C63AE651997696E87E
:1000E000E6C28426EB898C9B62ED407C6FFCEFBC02
:1000F0009C9F40F2BAA56FA5F490055A2AF75C932D
:100100006B6CF9676DC11BFCE0E40D47FEF520E662
:10011000B500D0ED902E0300943577050080841E45
:10012000080000204E0A000000C80C333333330FA0
:10013000986E12831141EF8D2114893BE65516CF3D
:10014000FEE6DB18D1844B381BF77C1D901DA4BB49
:10015000E424203284725E228100C9F124ECA1E5FE
:100160003D2711241FBECFEFD8E0DEBFCDBF12E088
:10017000A0E0B1E0E4E2FCE102C005900D92A832FB
:10018000B107D9F70E94C8000C94100E0C9400001F
:100190000F931F93DF93CF93CDB7DEB7C354D040F7
:1001A0000FB6F894DEBF0FBECDBFE4E2F0E08FEFF4
:1001B0008083E7E2F0E01082EAE2F0E08FEF8083F4
:1001C00080E090E0A8E4B2E48DAB9EABAFABB8AFFB
:1001D0006DA97EA98FA998AD20E030E04AE753E4ED
:1001E0000E945206DC01CB0189AB9AABABABBCAB36
:1001F00069A97AA98BA99CA920E030E040E85FE3D7
:100200000E94580888232CF481E090E098AB8FA7D7
:100210003FC069A97AA98BA99CA920E03FEF4FE7CD
:1002200057E40E94F80718164CF56DA97EA98FA90E
:1002300098AD20E030E040E251E40E945206DC013B
:10024000CB01BC01CD010E947C04DC01CB0198AB49
:100250008FA70FC089E190E09EA78DA78DA59EA5D1
:100260000197F1F79EA78DA78FA598A9019798AB45
:100270008FA78FA598A9009769F714C069A97AA9D3
:100280008BA99CA90E947C04DC01CB0198AB8FA7B1
:100290008FA598A99CA78BA78BA59CA50197F1F783
:1002A0009CA78BA7ACE7B0E0ECE7F0E0808180642E
:1002B0008C93AAE7B0E0EAE7F0E08081876A8C934C
:1002C00080E090E0A0E0B0E089AF9AAFABAFBCAF08
:1002D00081E00E941A0380E090E0A8E4B2E48FA3DA
:1002E00098A7A9A7BAA76FA178A589A59AA520E084
:1002F00030E04AE753E40E945206DC01CB018BA3B5
:100300009CA3ADA3BEA36BA17CA18DA19EA120E067
:1003100030E040E85FE30E94580888232CF481E035
:1003200090E09AA389A33FC06BA17CA18DA19EA15F
:1003300020E03FEF4FE757E40E94F80718164CF50E
:100340006FA178A589A59AA520E030E040E251E4AC
:100350000E945206DC01CB01BC01CD010E947C044D
:10036000DC01CB019AA389A30FC089E190E098A397
:100370008F8F8F8D98A10197F1F798A38F8F89A107
:100380009AA101979AA389A389A19AA1009769F7D5
:1003900014C06BA17CA18DA19EA10E947C04DC01F4
:1003A000CB019AA389A389A19AA19E8F8D8F8D8D50
:1003B0009E8D0197F1F79E8F8D8F88E30E941A031F
:1003C00080E090E0A8E4B2E4898F9A8FAB8FBC8F75
:1003D000698D7A8D8B8D9C8D20E030E04AE753E467
:1003E0000E945206DC01CB018D8B9E8BAF8BB88FA8
:1003F0006D897E898F89988D20E030E040E85FE349
:100400000E94580888232CF481E090E09C8B8B8B11
:100410003FC06D897E898F89988D20E03FEF4FE73F
:1004200057E40E94F80718164CF5698D7A8D8B8D6C
:100430009C8D20E030E040E251E40E945206DC0155
:10044000CB01BC01CD010E947C04DC01CB019C8B63
:100450008B8B0FC089E190E09A8B898B89899A896F
:100460000197F1F79A8B898B8B899C8901979C8BDB
:100470008B8B8B899C89009769F714C06D897E8965
:100480008F89988D0E947C04DC01CB019C8B8B8B27
:100490008B899C89988B8F878F8598890197F1F735
:1004A000988B8F878FE00E941A0380E090E0A8E489
:1004B000B2E48B879C87AD87BE876B857C858D85F5
:1004C0009E8520E030E04AE753E40E945206DC01BA
:1004D000CB018F839887A987BA876F8178858985B3
:1004E0009A8520E030E040E85FE30E9458088823C6
:1004F0002CF481E090E09E838D833FC06F817885EE
:1005000089859A8520E03FEF4FE757E40E94F8077E
:1005100018164CF56B857C858D859E8520E030E036
:1005200040E251E40E945206DC01CB01BC01CD0146
:100530000E947C04DC01CB019E838D830FC089E186
:1005400090E09C838B838B819C810197F1F79C8346
:100550008B838D819E8101979E838D838D819E816A
:10056000009769F714C06F81788589859A850E9404
:100570007C04DC01CB019E838D838D819E819A83D7
:10058000898389819A810197F1F79A838983AAE700
:10059000B0E0EAE7F0E0808180648C93E8E7F0E087
:1005A00080819181CC01A0E0B0E0BC01CD010E942E
:1005B000DC08DC01CB01BC01CD012DEC3CEC4CE4B2
:1005C00053E40E944C07DC01CB01BC01CD0120E0CB
:1005D00030E040E951E40E945206DC01CB0189AFD2
:1005E0009AAFABAFBCAF80E091E00E945E0480ECBC
:1005F0000E941A0381E191E00E945E0488EC0E944F
:100600001A0389AD9AADABADBCADFE01FD96BC0140
:10061000CD0145E022E08F010E94810BCE01CD96F5
:100620000E945E048AE191E00E945E0480E80E94DC
:100630001A03B4CFDF93CF93CDB7DEB72F970FB6A2
:10064000F894DEBF0FBECDBF8F87E5E2F0E08F8567
:100650008083ABE2B0E0EBE2F0E080818F7B8C93B3
:10066000ABE2B0E0EBE2F0E0808180628C9380E06E
:1006700090E0A0E0B0E48B879C87AD87BE876B8558
:100680007C858D859E8520E030E04AE753E40E941A
:100690005206DC01CB018F839887A987BA876F81C7
:1006A000788589859A8520E030E040E85FE30E9404
:1006B000580888232CF481E090E09E838D833FC00E
:1006C0006F81788589859A8520E03FEF4FE757E471
:1006D0000E94F80718164CF56B857C858D859E85E4
:1006E00020E030E040E251E40E945206DC01CB0100
:1006F000BC01CD010E947C04DC01CB019E838D8373
:100700000FC089E190E09C838B838B819C81019752
:10071000F1F79C838B838D819E8101979E838D83CE
:100720008D819E81009769F714C06F8178858985D6
:100730009A850E947C04DC01CB019E838D838D8190
:100740009E819A83898389819A810197F1F79A839F
:100750008983ABE2B0E0EBE2F0E08081807C8C93B7
:10076000E5E2F0E010822F960FB6F894DEBF0FBEE0
:10077000CDBFCF91DF910895DF93CF93CDB7DEB793
:100780002F970FB6F894DEBF0FBECDBF8F87E5E27F
:10079000F0E08F858083ABE2B0E0EBE2F0E08081B7
:1007A00080648C93ABE2B0E0EBE2F0E080818062A9
:1007B0008C9380E090E0A0E0B0E48B879C87AD87CD
:1007C000BE876B857C858D859E8520E030E04AE77D
:1007D00053E40E945206DC01CB018F839887A987DE
:1007E000BA876F81788589859A8520E030E040E876
:1007F0005FE30E94580888232CF481E090E09E83F8
:100800008D833FC06F81788589859A8520E03FEF91
:100810004FE757E40E94F80718164CF56B857C8566
:100820008D859E8520E030E040E251E40E94520632
:10083000DC01CB01BC01CD010E947C04DC01CB01B9
:100840009E838D830FC089E190E09C838B838B8195
:100850009C810197F1F79C838B838D819E81019709
:100860009E838D838D819E81009769F714C06F816F
:10087000788589859A850E947C04DC01CB019E8362
:100880008D838D819E819A83898389819A81019745
:10089000F1F79A838983ABE2B0E0EBE2F0E080818C
:1008A000807C8C93E5E2F0E010822F960FB6F894EE
:1008B000DEBF0FBECDBFCF91DF910895DF93CF9301
:1008C00000D0CDB7DEB79A8389830CC0E981FA8165
:1008D0008081282F89819A8101969A838983822F2A
:1008E0000E94BC03E981FA81808118167CF30F9085
:1008F0000F90CF91DF910895EF92FF920F931F9386
:100900007B018C0120E030E040E05FE40E94280899
:1009100088238CF0C801B70120E030E040E05FE4BC
:100920000E94F4050E9488089B01AC0120503040D1
:100930004040504806C0C801B7010E9488089B018A
:10094000AC01B901CA011F910F91FF90EF9008957A
:10095000A0E0B0E0EEEAF4E00C944A0BDC012B01DD
:10096000FA019C91923008F439C1EB018881823000
:1009700008F433C1943069F4843009F02FC1119622
:100980009C9111978981981709F428C1AFE1B1E0D2
:1009900025C1843009F421C18230A9F4923009F0D4
:1009A0001DC19A01AD0188E0EA010990AE01E9019B
:1009B00009929E018150C1F7E201898111969C91B3
:1009C0008923818308C1923009F407C112962D90C2
:1009D0003C901397EB018A819B811496AD90BD905A
:1009E000CD90DC901797EC80FD800E811F819101E6
:1009F000281B390BB90137FF04C066277727621B14
:100A0000730B603271050CF061C0121613066CF5A1
:100A100037014801062E04C0969487947794679412
:100A20000A94D2F721E030E040E050E004C0220F09
:100A3000331F441F551F6A95D2F721503040404064
:100A400050402E213F2140235123211531054105DE
:100A5000510521F021E030E040E050E079018A01C9
:100A6000E628F728082919293CC0232BD1F1260EA6
:100A7000371E35014601062E04C09694879477945C
:100A800067940A94D2F721E030E040E050E004C0DF
:100A9000220F331F441F551F6A95D2F72150304053
:100AA000404050402A213B214C215D212115310538
:100AB0004105510521F021E030E040E050E05901CE
:100AC0006A01A628B728C828D9280BC08215930523
:100AD0002CF01C01AA24BB24650103C0EE24FF24D2
:100AE000870111969C91D20111968C91981709F467
:100AF00045C0992339F0A80197012A193B094C09EF
:100B00005D0906C0A60195012E193F09400B510B46
:100B100057FD08C0118233822282248335834683A5
:100B200057831DC081E081833382228288279927E1
:100B3000DC01821B930BA40BB50B84839583A683E6
:100B4000B7830DC0220F331F441F551F24833583E5
:100B50004683578382819381019793838283248183
:100B6000358146815781DA01C9010197A109B1098F
:100B70008F5F9F4FAF4FBF4328F30BC091833382EA
:100B80002282EA0CFB1C0C1D1D1DE482F5820683EB
:100B9000178383E08083248135814681578157FF05
:100BA0001AC0C901AA2797FDA095BA2F817090702D
:100BB000A070B0705695479537952795822B932B4B
:100BC000A42BB52B84839583A683B78382819381DD
:100BD000019693838283DF0101C0D201CD01CDB79D
:100BE000DEB7E2E10C94660BA0E2B0E0EAEFF5E0DC
:100BF0000C94560B69837A838B839C832D833E836D
:100C00004F835887E9E0EE2EF12CEC0EFD1ECE014D
:100C10000196B7010E94790A8E010F5E1F4FCE0127
:100C20000596B8010E94790A8A8991E089278A8B02
:100C3000C701B801AE01475E5F4F0E94A8040E9441
:100C4000A409A096E6E00C94720BA0E2B0E0EBE2FF
:100C5000F6E00C94560B69837A838B839C832D83F7
:100C60003E834F835887F9E0EF2EF12CEC0EFD1EEA
:100C7000CE010196B7010E94790A8E010F5E1F4FC7
:100C8000CE010596B8010E94790AC701B801AE01EC
:100C9000475E5F4F0E94A8040E94A409A096E6E068
:100CA0000C94720BA0E2B0E0E8E5F6E00C944A0B7D
:100CB00069837A838B839C832D833E834F835887FC
:100CC000CE010196BE01675F7F4F0E94790ACE0177
:100CD0000596BE016F5E7F4F0E94790A998592301A
:100CE00088F089898230C8F0943019F4823051F448
:100CF00004C0843029F4923081F48FE191E0C6C0C1
:100D0000923049F420E09A858A89981321E02A8755
:100D1000CE010996BBC0823049F420E09A858A89C9
:100D2000981321E02A8BCE014196B0C02D843E84D9
:100D30004F8458886D887E888F88988CEE24FF2495
:100D40008701AA24BB24650140E050E060E070E028
:100D5000E0E0F0E0C10181709070892BE9F0E60CD1
:100D6000F71C081D191D9A01AB012A0D3B1D4C1DD6
:100D70005D1D80E090E0A0E0B0E0E614F704080517
:100D8000190520F481E090E0A0E0B0E0BA01A901EB
:100D9000480F591F6A1F7B1FAA0CBB1CCC1CDD1CF3
:100DA00097FE08C081E090E0A0E0B0E0A82AB92A50
:100DB000CA2ADB2A3196E032F10549F0660C771C2D
:100DC000881C991C5694479437942794C3CFFA856E
:100DD000EA892B893C898B859C85280F391F2E5FDA
:100DE0003F4F17C0CA0181709070892B61F0169532
:100DF0000795F794E79480E090E0A0E0B0E8E82A57
:100E0000F92A0A2B1B2B76956795579547952F5FE7
:100E10003F4F77FDE7CF0CC0440F551F661F771F6C
:100E200017FD4160EE0CFF1C001F111F21503040C8
:100E3000403090E0590790E0690790E4790760F34B
:100E40002B8F3C8FDB01CA018F779070A070B07040
:100E500080349105A105B10561F447FD0AC0E11494
:100E6000F1040105110529F0405C5F4F6F4F7F4F82
:100E700040781A8EFE1711F081E08A8F4D8F5E8FB9
:100E80006F8F78A383E0898FCE0149960E94A409D1
:100E9000A096E2E10C94660BA8E1B0E0E2E5F7E091
:100EA0000C94520B69837A838B839C832D833E83BE
:100EB0004F835887B9E0EB2EF12CEC0EFD1ECE01CE
:100EC0000196B7010E94790A8E010F5E1F4FCE0175
:100ED0000596B8010E94790A2985223008F47EC05F
:100EE0003989323010F4B8017CC08A859A89892703
:100EF0008A87243011F0223031F4231709F06EC0B4
:100F00006FE171E06EC0343039F41D861E861F8695
:100F1000188A1C861B8604C0323021F484E089873D
:100F2000B7015FC02B853C858B899C89281B390BB9
:100F30003C872B87ED84FE840F851889AD88BE8899
:100F4000CF88D88CEA14FB040C051D0540F4EE0C88
:100F5000FF1C001F111F215030403C872B8720E0D1
:100F600030E040E050E080E090E0A0E0B0E460E0FD
:100F700070E0EA14FB040C051D0540F0282B392B0A
:100F80004A2B5B2BEA18FB080C091D09B695A7959F
:100F900097958795EE0CFF1C001F111F6F5F7F4F09
:100FA0006F31710531F7DA01C9018F779070A07048
:100FB000B07080349105A105B10561F427FD0AC028
:100FC000E114F1040105110529F0205C3F4F4F4F5A
:100FD0005F4F20782D873E874F87588BBE01675F14
:100FE0007F4FCB010E94A4096896EAE00C946E0B37
:100FF000A8E1B0E0EEEFF7E00C94560B69837A833A
:101000008B839C832D833E834F83588789E0E82E12
:10101000F12CEC0EFD1ECE010196B7010E94790A5B
:101020008E010F5E1F4FCE010596B8010E94790A0E
:101030008985823040F08989823028F0C701B80163
:101040000E94F10A01C08FEF6896E6E00C94720BE3
:10105000A8E1B0E0EEE2F8E00C94560B69837A83E5
:101060008B839C832D833E834F83588789E0E82EB2
:10107000F12CEC0EFD1ECE010196B7010E94790AFB
:101080008E010F5E1F4FCE010596B8010E94790AAE
:101090008985823040F08989823028F0C701B80103
:1010A0000E94F10A01C08FEF6896E6E00C94720B83
:1010B000A8E1B0E0EEE5F8E00C94560B69837A8382
:1010C0008B839C832D833E834F83588789E0E82E52
:1010D000F12CEC0EFD1ECE010196B7010E94790A9B
:1010E0008E010F5E1F4FCE010596B8010E94790A4E
:1010F0008985823040F08989823028F0C701B801A3
:101100000E94F10A01C081E06896E6E00C94720B3F
:10111000ACE0B0E0EEE8F8E00C945A0B69837A8317
:101120008B839C83CE010196BE016B5F7F4F0E9433
:10113000790A8D81823061F1823050F1843021F45E
:101140008E81882351F12EC02F81388537FD20C034
:101150006E812F3131051CF06623F9F023C08EE13A
:1011600090E0821B930B29853A854B855C8504C0F2
:1011700056954795379527958A95D2F76623B1F00E
:1011800050954095309521953F4F4F4F5F4F0EC082
:1011900020E030E040E050E009C02FEF3FEF4FEF9C
:1011A0005FE704C020E030E040E050E8B901CA0148
:1011B0002C96E2E00C94760BA8E0B0E0E2EEF8E0CA
:1011C0000C94520B7B018C01611571058105910511
:1011D00019F482E0898360C083E089838EE1C82EA0
:1011E000D12CDC82CB82ED82FE820F831887C8016E
:1011F000B7010E945509FC013197F7FF3BC0222738
:1012000033272E1B3F0B57016801022E04C0D694D2
:10121000C794B794A7940A94D2F740E050E060E0F6
:1012200070E081E090E0A0E0B0E004C0880F991F7A
:10123000AA1FBB1F2A95D2F70197A109B1098E21D8
:101240009F21A023B1230097A105B10521F041E022
:1012500050E060E070E04A295B296C297D294D83CC
:101260005E836F8378878EE190E08E1B9F0B9C835B
:101270008B8312C0309781F00E2E04C0EE0CFF1C41
:10128000001F111F0A94D2F7ED82FE820F83188788
:10129000CE1ADF0ADC82CB821A82CE0101960E942E
:1012A000A4092896EAE00C946E0BEF92FF920F933C
:1012B0001F937B018C0180E0E81680E0F80681E056
:1012C000080780E0180788F48FEFE816F10401059D
:1012D000110531F028F088E090E0A0E0B0E017C000
:1012E00080E090E0A0E0B0E012C080E0E81680E08E
:1012F000F80680E0080781E0180728F088E190E010
:10130000A0E0B0E004C080E190E0A0E0B0E020E226
:1013100030E040E050E0281B390B4A0B5B0B04C067
:1013200016950795F794E7948A95D2F7F701E95D4A
:10133000FE4F8081281B310941095109C9011F91C4
:101340000F91FF90EF900895DF92EF92FF920F932D
:101350001F93FC01E480F58006811781D180808194
:10136000823048F480E090E0A0E1B0E0E82AF92A79
:101370000A2B1B2BA5C0843009F49FC0823021F4B6
:10138000EE24FF24870105C0E114F10401051105D5
:1013900019F4E0E0F0E096C0628173819FEF62385B
:1013A00079070CF05BC022E83FEF261B370B2A3190
:1013B00031052CF020E030E040E050E02AC0B801D8
:1013C000A701022E04C076956795579547950A9414
:1013D000D2F781E090E0A0E0B0E004C0880F991F50
:1013E000AA1FBB1F2A95D2F70197A109B1098E2127
:1013F0009F21A023B1230097A105B10521F081E031
:1014000090E0A0E0B0E09A01AB01282B392B4A2BE9
:101410005B2BDA01C9018F779070A070B0708034B7
:101420009105A105B10539F427FF09C0205C3F4FA4
:101430004F4F5F4F04C0215C3F4F4F4F5F4FE0E085
:10144000F0E02030A0E03A07A0E04A07A0E45A0705
:1014500010F0E1E0F0E079018A0127C06038710501
:1014600064F5FB01E158FF4FD801C7018F779070F9
:10147000A070B07080349105A105B10539F4E7FE84
:101480000DC080E490E0A0E0B0E004C08FE390E005
:10149000A0E0B0E0E80EF91E0A1F1B1F17FF05C0F1
:1014A00016950795F794E794319687E0169507957A
:1014B000F794E7948A95D1F705C0EE24FF248701BD
:1014C000EFEFF0E06E2F679566276795902F9F7777
:1014D000D794DD24D7948E2F8695492F462B582FED
:1014E0005D29B701CA011F910F91FF90EF90DF9026
:1014F0000895FC01DB01408151812281622F6F77C9
:1015000070E0221F2227221F9381892F880F822BB0
:10151000282F30E0991F9927991F11969C931197B6
:1015200021153105A9F5411551056105710511F424
:1015300082E037C082E89FEF13969C938E931297B8
:101540009A01AB0167E0220F331F441F551F6A95B4
:10155000D1F783E08C930DC0220F331F441F551F1A
:1015600012968D919C911397019713969C938E934D
:101570001297203080E0380780E0480780E4580761
:1015800058F314962D933D934D935C9317970895BC
:101590002F3F310579F4411551056105710519F4A5
:1015A00084E08C93089564FF03C081E08C9312C0A3
:1015B0001C9210C02F57304013963C932E931297D5
:1015C00083E08C9387E0440F551F661F771F8A9531
:1015D000D1F7706414964D935D936D937C93179738
:1015E00008951F93DC01FB019C91923008F447C0E1
:1015F0008081823008F443C0943051F411961C91DC
:10160000843099F58181682F70E0611B71093FC0BA
:10161000843021F0923031F48230B9F18181882315
:1016200089F12DC011961C9111978230F1F08181C2
:101630001817D9F412962D913C91139782819381BA
:101640008217930794F028173907BCF014968D91F0
:101650009D910D90BC91A02D2481358146815781AB
:10166000281739074A075B0718F4112341F00AC00D
:1016700082179307A407B50740F4112319F061E01E
:1016800070E005C06FEF7FEF02C060E070E0CB015B
:101690001F9108952F923F924F925F926F927F9287
:1016A0008F929F92AF92BF92CF92DF92EF92FF9272
:1016B0000F931F93CF93DF93CDB7DEB7CA1BDB0B1E
:1016C0000FB6F894DEBF0FBECDBF09942A883988C3
:1016D00048885F846E847D848C849B84AA84B984CA
:1016E000C884DF80EE80FD800C811B81AA81B981D6
:1016F000CE0FD11D0FB6F894DEBF0FBECDBFED01EA
:101700000895EF92FF920F931F93F22FF02E47FD53
:1017100002C0E4E001C0E4E1242F332727FD309527
:1017200037FF03C0309521953F4F4F2D512F0F2F7D
:10173000EE2E07D08F2D912F1F910F91FF90EF90DC
:101740000895A9E0B0E0E6EAFBE0A8CFC42ED52ECC
:10175000122FA02EBE2C2BE3201718F42CE3922E70
:1017600002C0902E93944C2F5D2F4F5F5F4F27E068
:10177000092D69D1682F792F8981E82EFF248E2DBC
:101780009F2D89709070019711F4ADE209C0B1FEF0
:1017900002C0ABE205C0B0FC02C0A0E001C0A0E204
:1017A000E3FE42C0AA2311F423E001C024E0211784
:1017B00010F020E002C0121B212FEB2CB4FE02C05F
:1017C000322F0BC0EC2DFD2D322F80E202C0819311
:1017D00031503323E1F7C20ED11CAA2329F0EC2D9E
:1017E000FD2DA193CE2EDF2EEC2DFD2D3196E2FEA8
:1017F00006C09EE4AC2DBD2D9C9381E405C09EE601
:10180000AC2DBD2D9C9381E611968C9391833296DD
:10181000AE2FBF2F832F90E202C09D93815088236B
:10182000E1F7E30FF11D47C0E2FE49C0AA2311F41E
:1018300023E001C024E0211710F020E002C0121BB9
:10184000212FEB2CB4FE02C0922F0BC0EC2DFD2DEE
:10185000922F80E202C0819391509923E1F7C20E4A
:10186000D11CAA2329F0EC2DFD2DA193CE2EDF2E25
:10187000EC2DFD2D3196E2FE09C089E4AC2DBD2D85
:101880008C938EE411968C9386E408C089E6AC2D87
:10189000BD2D8C938EE611968C9386E681833296CD
:1018A000AE2FBF2F892F20E202C02D9381508823B5
:1018B000E1F7E90FF11D10822EEF3FEFBFC01616C2
:1018C00017061CF041E050E004C0462F572F4F5F31
:1018D0005F4FAA2019F480E090E003C08A2D90E0C9
:1018E000019620E030E0AA2311F021E030E0240F3F
:1018F000351F280F391F812F90E02817390714F062
:1019000020E002C0121B212F4B2D50E0842F952F79
:1019100080719070B4FC0EC0B3FC0CC0EC2DFD2D9A
:10192000322F40E202C0419331503323E1F7C20E1F
:10193000D11C01C0322FAA2329F0EC2DFD2DA1933B
:10194000CE2EDF2E892B11F0132F0BC0EC2DFD2D89
:10195000132F80E302C0819311501123E1F7C30ECE
:10196000D11C092D060FBA8090E1892E912C8E2072
:101970009F20E4FE04C0F1E3BF1609F401501016E5
:1019800014F001E003C0093008F008E0262F372FDB
:1019900077FF02C020E030E0862F972F0196821B50
:1019A000930BEC2FFD2F3196E80FF91F8EE2F82EE6
:1019B000662E772E601A71088A2D90E044275527ED
:1019C000481B590B8FEF2F3F380729F4AC2DBD2D45
:1019D000FD92CA2EDB2E621773072CF06216730677
:1019E00014F4808101C080E32150304031962417E7
:1019F000350734F0AC2DBD2D8D93CA2EDB2EE2CFF2
:101A00002617370749F4B5E3BB1528F0BB1621F4B8
:101A10008114910409F481E3EC2DFD2D8193AC2D0B
:101A2000BD2D812F90E202C09C9381501196882396
:101A3000D9F7E10FF11D108220E030E0822F932FC3
:101A40002996EEE047CE283008F027E03327A42F70
:101A5000B52F990F311D87FD9160009661057105C5
:101A600039F432602E5F3D9330E32A95E1F7089513
:101A70009F3F30F080387105610509F03C5F3C5FA5
:101A80003D93913008F08068911DDF93CF931F93B1
:101A90000F93FF92EF92192F987F9695E92F9695C5
:101AA0009695E90FFF27EE53FF4F99273327EE2432
:101AB000FF244E2D5F2DCE2DDF2DC8953196089435
:101AC000079428F4360FE71EF81E491F511D660FB4
:101AD000771F881F991F0694A1F7C895319608941F
:101AE000079428F4E70EF81E491F561FC11D770FF3
:101AF000881F991F661F0694A1F7C8953196089410
:101B0000079428F4F80E491F561FC71FD11D880FD0
:101B1000991F661F771F0694A1F7C895079420F4B4
:101B2000490F561FC71FD81F990F661F771F881FA1
:101B30000694A9F73196C895802D1095177041F03D
:101B4000D695C79557954795F794E7941A95C1F799
:101B5000E8E6F0E06894C895102C3196C895102DF1
:101B60003196C895302D3196C895602D3196C8951F
:101B7000902D3196C89531967FE27395E118F10A60
:101B8000430B560BC90BD009C0F7E10CF11E431FE4
:101B9000561FC91FD01D7EF4703311F48A95DBCF18
:101BA000E894015030F0080F0AF40027021708F4F7
:101BB000202F2395022F7A3328F079E37D932A95FD
:101BC000E9F710C07D932A9531F6069497956795AD
:101BD000379517951794E118F10A430B560BC90B6B
:101BE000D00998F023957E9173957A3308F070E3CD
:101BF0007C932013B8F77E9170617D9330F08395CC
:101C000071E37D9370E32A95E1F71124EF90FF9043
:101C10000F911F91CF91DF91992787FD909508959E
:041C2000F894FFCF66
:101C2400434952435549542044494745535420207D
:101C340000564F4C544147453D005620202000009B
:101C4400000000000000000001020203030303047B
:101C54000404040404040405050505050505050537
:101C64000505050505050506060606060606060617
:101C74000606060606060606060606060606060600
:101C840006060606060606070707070707070707E7
:101C940007070707070707070707070707070707D0
:101CA40007070707070707070707070707070707C0
:101CB40007070707070707070707070707070707B0
:101CC4000707070707070708080808080808080897
:101CD4000808080808080808080808080808080880
:101CE4000808080808080808080808080808080870
:101CF4000808080808080808080808080808080860
:101D0400080808080808080808080808080808084F
:101D1400080808080808080808080808080808083F
:101D2400080808080808080808080808080808082F
:101D3400080808080808080808080808080808081F
:081D440008080808080808005F
:00000001FF
